:0400000070EF11F09C
:100F00000000A040CDCC3D10494014000A00FF0174
:100F1000070006003C04429F6A429001424DBB40DC
:100F2000EC473E8E1FBB3C04425A8B420444429C19
:100F30004F4100803F000E0EF66E0F0EF76E090057
:100F4000F5CF5BF00900F5CF5CF05B1E5C1E5B4AE1
:100F50005C2A120EF66E0F0EF76E0900F5CF01F047
:100F60000A00F5CF02F048EC11F05B5001240001BB
:100F7000876F5C500220886F0E0EF66E0F0EF76EB4
:100F80000900F5CF5BF00900F5CF5CF05B1E5C1E3D
:100F90005B4A5C2A100EF66E0F0EF76E0900F5CF55
:100FA00001F00A00F5CF02F048EC11F05B5001248B
:100FB0000001896F5C5002208A6F87C009F088C0E9
:100FC0000AF0B7EC11F009C055F00AC056F00BC09A
:100FD00057F089C009F08AC00AF0B7EC11F009C0D7
:100FE00052F00AC053F00BC054F059EC09F052C053
:100FF0006CF053C06DF054C06EF06CC027F06DC043
:1010000028F06EC029F0070EF66E0F0EF76E09007D
:10101000F5CF1BF00900F5CF1CF00A00F5CF1DF04D
:10102000000E186E340E196E430E1A6E59EC0FF046
:1010300018C02AF019C02BF01AC02CF0DFEC0EF00B
:1010400027C08BF028C08CF029C08DF0000E0F6EE9
:10105000A00E106E410E116E8BC012F08CC013F0FA
:101060008DC014F0D6EC10F0D8B007D0000E0001FF
:101070008B6FA00E8C6F410E16D08BC00FF08CC002
:1010800010F08DC011F0000E126EF00E136EC10E36
:10109000146ED6EC10F0D8B007D0000E00018B6FA4
:1010A000F00E8C6FC10E8D6FA8C0A5F0A9C0A6F080
:1010B000AAC0A7F0ABC0A8F0ACC0A9F0ADC0AAF020
:1010C000AEC0ABF0AFC0ACF0B0C0ADF0B1C0AEF0F0
:1010D000B2C0AFF0B3C0B0F0B4C0B1F0B5C0B2F0C0
:1010E000B6C0B3F0B7C0B4F0B8C0B5F0B9C0B6F090
:1010F000BAC0B7F0BBC0B8F0BCC0B9F0BDC0BAF060
:10110000BEC0BBF0BFC0BCF0C0C0BDF0C1C0BEF02F
:10111000C2C0BFF08BC0C0F08CC0C1F08DC0C2F0A7
:10112000BDC00FF0BEC010F0BFC011F0C0C00CF0C9
:10113000C1C00DF0C2C00EF03EEC0CF00CC06FF060
:101140000DC070F00EC071F0BAC00FF0BBC010F04F
:10115000BCC011F06FC00CF070C00DF071C00EF08B
:101160003EEC0CF00CC072F00DC073F00EC074F0C9
:10117000B7C00FF0B8C010F0B9C011F072C00CF0D9
:1011800073C00DF074C00EF03EEC0CF00CC075F0A6
:101190000DC076F00EC077F0B4C00FF0B5C010F0FF
:1011A000B6C011F075C00CF076C00DF077C00EF02F
:1011B0003EEC0CF00CC078F00DC079F00EC07AF067
:1011C000B1C00FF0B2C010F0B3C011F078C00CF095
:1011D00079C00DF07AC00EF03EEC0CF00CC07BF044
:1011E0000DC07CF00EC07DF0AEC00FF0AFC010F0AF
:1011F000B0C011F07BC00CF07CC00DF07DC00EF0D3
:101200003EEC0CF00CC07EF00DC07FF00EC080F004
:10121000ABC00FF0ACC010F0ADC011F07EC00CF050
:101220007FC00DF080C00EF03EEC0CF00CC081F0E1
:101230000DC082F00EC083F0A8C00FF0A9C010F05E
:10124000AAC011F081C00CF082C00DF083C00EF076
:101250003EEC0CF00CC084F00DC085F00EC086F0A2
:10126000A5C00FF0A6C010F0A7C011F084C00CF00C
:1012700085C00DF086C00EF03EEC0CF00CC018F0EE
:101280000DC019F00EC01AF0000E1B6E200E1C6E61
:10129000410E1D6E59EC0FF018C069F019C06AF0CC
:1012A0001AC06BF069C058F06AC059F06BC05AF0B0
:1012B0001200555056105710D8A42FD0525053102A
:1012C0005410D8A40CD0000E0001C46F210EC36FBF
:1012D000000E526E000E536E000E546E1200000E81
:1012E0000F6E000E106E000E116E52C012F053C041
:1012F00013F054C014F0D6EC10F0D8B007D0100E94
:10130000526EC90E536E3F0E546E1200100E526E86
:10131000C90E536EBF0E546E12005250531054102B
:10132000D8A41ED0000E0F6E000E106E000E116EAF
:1013300055C012F056C013F057C014F0D6EC10F0A0
:10134000D8B007D0000E526E000E536E000E546ED1
:101350001200100E526E490E536E400E546E120063
:1013600055C00CF056C00DF057C00EF0D3EC11F084
:101370000CC00FF00DC010F00EC011F052C00CF0F8
:1013800053C00DF054C00EF0D3EC11F00CC012F0AD
:101390000DC013F00EC014F0D6EC10F0D8A056D04B
:1013A00052C018F053C019F054C01AF055C01BF0C9
:1013B00056C01CF057C01DF059EC0FF018C063F078
:1013C00019C064F01AC065F063C042F064C043F015
:1013D00065C044F088EC0AF042C066F043C067F094
:1013E00044C068F057AE2BD054BE15D066C00CF088
:1013F00067C00DF068C00EF0100E0F6E490E106E33
:10140000400E116E3EEC0CF00CC066F00DC067F0A3
:101410000EC068F014D066C018F067C019F068C03C
:101420001AF0100E1B6E490E1C6E400E1D6E97ECCE
:1014300011F018C066F019C067F01AC068F066C0F5
:1014400052F067C053F068C054F0120052C01BF055
:1014500053C01CF054C01DF055C018F056C019F010
:1014600057C01AF059EC0FF018C063F019C064F0BF
:101470001AC065F063C042F064C043F065C044F038
:1014800088EC0AF042C060F043C061F044C062F0F2
:1014900060C009F061C00AF062C00BF010EC12F0FD
:1014A00009C066F00AC067F00BC068F054AE15D0F2
:1014B00066C018F067C019F068C01AF0100E1B6EF5
:1014C000C90E1C6E3F0E1D6E97EC11F018C066F031
:1014D00019C067F01AC068F014D066C00CF067C07D
:1014E0000DF068C00EF0100E0F6EC90E106E3F0E9C
:1014F000116E3EEC0CF00CC066F00DC067F00EC033
:1015000068F066C052F067C053F068C054F0120033
:1015100042C00CF043C00DF044C00EF0D3EC11F00B
:101520000CC04FF00DC050F00EC051F04F50501095
:101530005110D8A407D0000E426E000E436E000E6C
:10154000446E1200000E0F6E800E106E3F0E116E74
:101550004FC012F050C013F051C014F0D6EC10F090
:10156000D8B002D0010E01D0000E4B6E4B50D8B453
:1015700014D0000E186E800E196E3F0E1A6E4FC0FA
:101580001BF050C01CF051C01DF059EC0FF018C0FA
:101590004FF019C050F01AC051F04FC027F050C0A2
:1015A00028F051C029F04FC02AF050C02BF051C094
:1015B0002CF0DFEC0EF027C04CF028C04DF029C015
:1015C0004EF04CC036F04DC037F04EC038F0260E0D
:1015D000396E0F0E3A6E000E3C6E040E3B6ECCEC74
:1015E0000FF036C045F037C046F038C047F04CC069
:1015F00036F04DC037F04EC038F0140E396E0F0E75
:101600003A6E000E3C6E050E3B6ECCEC0FF036C011
:1016100048F037C049F038C04AF04FC027F050C0FA
:1016200028F051C029F045C01BF046C01CF047C04F
:101630001DF048C018F049C019F04AC01AF059EC22
:101640000FF018C02AF019C02BF01AC02CF0DFECF4
:101650000EF027C04FF028C050F029C051F04B5079
:10166000D8B41CD04FC009F050C00AF051C00BF0E4
:1016700010EC12F009C00CF00AC00DF00BC00EF017
:10168000100E0F6EC90E106E3F0E116E3EEC0CF078
:101690000CC04FF00DC050F00EC051F044BE07D04A
:1016A0004FC042F050C043F051C044F012004FC050
:1016B00009F050C00AF051C00BF010EC12F009C054
:1016C00042F00AC043F00BC044F012001EEC11F0CF
:1016D000000E0001A16FAA0EA16FA15130EC12F013
:1016E000070E0001A16FA15130EC12F09BEC07F046
:1016F00058C08EF059C08FF05AC090F089968998E2
:10170000000E00019E6F000E9D6F000E916F000E87
:10171000926F000E936F000E9A6F000E9B6F000E7B
:101720009C6F000E946F000E956F000E966F000E6A
:10173000A06F000E9F6F8E968E989BEC07F058C09E
:101740009AF059C09BF05AC09CF0000E00019E6FA9
:10175000000E9D6F7CD03DEC12F00001C74BC82BF2
:10176000C8BF0AD0890EC75D130EC859D8A004D0CF
:10177000000EC86F000EC76F0C0EF66E0F0EF76EE0
:101780000900F5CF45F00A00F5CF46F08CEC10F0DB
:101790009BEC07F058C097F059C098F05AC099F0E8
:1017A0009AC009F09BC00AF09CC00BF010EC12F03C
:1017B00009C00CF00AC00DF00BC00EF097C00FF07E
:1017C00098C010F099C011F03EEC0CF00CC0A2F0E3
:1017D0000DC0A3F00EC0A4F00001A4AF14D0A2C0AD
:1017E00027F0A3C028F0A4C029F0000E2A6E800EB6
:1017F0002B6EBF0E2C6EDFEC0EF027C0A2F028C0BF
:10180000A3F029C0A4F0010EF66E0F0EF76E0900CA
:10181000F5CF0FF00900F5CF10F00A00F5CF11F069
:10182000A2C012F0A3C013F0A4C014F0D6EC10F0C4
:10183000D8B007D0000E00019E6F010E9D6F8E86FE
:1018400002D08E9600019F51A011D8B48E989D5160
:101850009E11D8B480D7CEEC0DF04E504F10D8B4B6
:1018600007D0000E0001A06F010E9F6F8E8865D714
:10187000000E0001A06F000E9F6F5ED70EC012F029
:10188000136A146A0D34123601E313801250176E76
:1018900011C012F0136A146A1034123601E3138077
:1018A0001250166E1750D8B40BD01650175CD8B023
:1018B0000ED0175000081624126E180E126407D0AE
:1018C0000FC00CF010C00DF011C00EF01200165039
:1018D000D8B40BD01750165CD8B00ED016500008F4
:1018E0001724126E180E126407D00CC00CF00DC035
:1018F0000DF00EC00EF01200060E156E0EBE158E07
:1019000011BE158C0D8EFF0E0C16FF0E0D16000E5F
:101910000E16108EFF0E0F16FF0E1016000E11166B
:101920001650175CD8B01BD0D8900F361036113631
:10193000160617501618D8B40DD0150615C012F09B
:10194000070E1216D8B406D0EFD7D8900E320D324B
:101950000C32172A16501718D8B41FD0F6D71750C4
:10196000165CD8B01AD0D8900C360D360E36170645
:1019700017501618D8B40DD0150615C012F0070E62
:101980001216D8B406D0EFD7D890113210320F32D9
:10199000162A16501718D8A4F7D715AE0CD0FF0E7C
:1019A0000C1AFF0E0D1AFF0E0E1A010E0C26000E59
:1019B0000D22000E0E2215AC0CD0FF0E0F1AFF0EDA
:1019C000101AFF0E111A010E0F26000E1022000E23
:1019D0001122000E156E0C500F260D5010220E50C5
:1019E000112211AE0ED0FF0E0F1AFF0E101AFF0EAD
:1019F000111A010E0F26000E1022000E1122010EE8
:101A0000156E0FC001F010C002F011C003F017C036
:101A100004F015C005F035EC10F001C00CF002C068
:101A20000DF003C00EF01200020E01180210D8A42F
:101A300003D08DA0AAD09FD0030E01180210D8A405
:101A400003D08DA2A2D097D0040E01180210D8A402
:101A500003D08DA49AD08FD0050E01180210D8A4FF
:101A600003D08DA692D087D0060E01180210D8A4FC
:101A700003D08DA88AD07FD0070E01180210D8A4F9
:101A800003D08DAA82D077D0090E01180210D8A4F5
:101A900003D08DAE7AD06FD00A0E01180210D8A4F0
:101AA00003D08DAC72D067D00B0E01180210D8A4F1
:101AB00003D08FA06AD05FD00C0E01180210D8A4FA
:101AC00003D08FA262D057D00D0E01180210D8A4F7
:101AD00003D08FA45AD04FD00E0E01180210D8A4F4
:101AE00003D08FA652D047D00F0E01180210D8A4F1
:101AF00003D08FA84AD03FD0100E01180210D8A4EE
:101B000003D08FAA42D037D0110E01180210D8A4EA
:101B100003D08FAC3AD02FD0120E01180210D8A4E7
:101B200003D08FAE32D027D0150E01180210D8A4E2
:101B300003D08EA02AD01FD0160E01180210D8A4F0
:101B400003D08EA222D017D0170E01180210D8A4ED
:101B500003D08EA41AD00FD0180E01180210D8A4EA
:101B600003D08EA612D007D0190E01180210D8A4E7
:101B700005D08EA80AD0036A032A08D01A0E0118CD
:101B80000210D8A406D08EBAF6D7036A0350046EAA
:101B9000056A04C001F005C002F01200000E566E86
:101BA000000E556E000E466E050E456E8CEC10F064
:101BB000000ED36E5DC001F05EC002F014EC0DF0BB
:101BC00001040210D8A41DD05DC001F05EC002F077
:101BD00014EC0DF001500210D8B413D0D350506E55
:101BE000516A0A0EF66E0F0EF76E50500900F55C42
:101BF0000900F550800A526E5150800A5258D8B0F0
:101C0000E3D7000ED36E5DC001F05EC002F014ECAD
:101C10000DF001500210D8A413D0D350506E516A69
:101C20000A0EF66E0F0EF76E50500900F55C0900B3
:101C3000F550800A526E5150800A5258D8B0E3D7FE
:101C4000000ED36E5DC001F05EC002F014EC0DF02A
:101C500001500210D8B413D0D350506E516A0A0EFE
:101C6000F66E0F0EF76E50500900F55C0900F55046
:101C7000800A526E5150800A5258D8B0E3D75DC0E6
:101C800001F05EC002F014EC0DF001C053F002C090
:101C900054F0D350506E516A0A0EF66E0F0EF76E66
:101CA00050500900F55C0900F550800A526E515001
:101CB000800A5258D8A004D0000E566E010E556E00
:101CC00055C04EF056C04FF0120038C03AF03B6A93
:101CD0003C6A37343A3601E33B803A50446E445014
:101CE000D8A409D0000E366E000E376E000E386E86
:101CF000000E396E1200170E3A6E36C03BF037C038
:101D00003CF038C03DF03A283E6E04D0D8903D32C9
:101D10003C323B323E2EFAD73B503F6E378EFF0EA1
:101D20003616FF0E3716000E38163650406E3750F6
:101D3000416E3850426E436A8E0E445E44AE16D0F9
:101D40004450800A8F0FD8B009D0000E366E000EB6
:101D5000376E000E386E000E396E1200D890433286
:101D6000423241324032443EF9D715D0170E446416
:101D70000FD0000E366E000E376E000E386E000E5D
:101D8000396E1200D890403641364236433644060A
:101D90004450D8A4F7D73F50D8B408D0431E421EB1
:101DA000411E406C000E41224222432240C036F0C8
:101DB00041C037F042C038F043C039F0120029C0AA
:101DC0002DF02E6A2F6A28342D3601E32E802D50F7
:101DD000306E3050D8A407D0000E276E000E286E4B
:101DE000000E296E12002CC02DF02E6A2F6A2B34A3
:101DF0002D3601E32E802D50356E3550D8A407D0F6
:101E0000000E276E000E286E000E296E120035504F
:101E10007B0F302629C035F02C50351A800E351630
:101E2000288E2B8EFF0E2A16FF0E2B16000E2C1658
:101E3000000E316E000E326E000E336E070E346EE1
:101E400027A006D02A5031262B5032222C50332284
:101E5000D890293228322732D8902A362B362C3681
:101E6000342EEED7090E346E27A006D02A50312624
:101E70002B5032222C503322D8902932283227324C
:101E8000D890333232323132342EEED731C001F0B5
:101E900032C002F033C003F030C004F035C005F0AA
:101EA00035EC10F001C027F002C028F003C029F083
:101EB00012001AC01EF01F6A206A19341E3601E390
:101EC0001F801E50256E2550D8A407D0000E186E16
:101ED000000E196E000E1A6E12001DC01EF01F6A51
:101EE000206A1C341E3601E31F801E50266E2650C9
:101EF000D8A407D0000E186E000E196E000E1A6ED0
:101F00001200000E226E000E236E000E246E26506C
:101F1000890F255E1AC026F01D50261A800E26163F
:101F2000198EFF0E1816FF0E1916000E1A161C8EAB
:101F3000FF0E1B16FF0E1C16000E1D16180E216E2E
:101F4000D8902236233624361B50185C1C50195862
:101F50001D501A58D8A007D01B50185E1C50195A93
:101F60001D501A5A2280D890183619361A36212E4A
:101F7000E7D722C001F023C002F024C003F025C03F
:101F800004F026C005F035EC10F001C018F002C0D6
:101F900019F003C01AF012003BC001F03CC002F07F
:101FA000000E046E030E036EEBEC11F039C03DF031
:101FB0003AC03EF001503D2602503E223DC0F6FFA1
:101FC0003EC0F7FF0900F5CF3FF00900F5CF40F024
:101FD0000A00F5CF41F03ED03FC02AF040C02BF0C0
:101FE00041C02CF036C027F037C028F038C029F0A7
:101FF000DFEC0EF027C00CF028C00DF029C00EF069
:10200000000E046E030E036E3B06D8A03C063BC0D8
:1020100001F03CC002F0EBEC11F039C03DF03AC0E9
:102020003EF001503D2602503E223DC0F6FF3EC02C
:10203000F7FF0900F5CF0FF00900F5CF10F00A0007
:10204000F5CF11F03EEC0CF00CC03FF00DC040F0AD
:102050000EC041F03B503C10D8A4BED73FC036F074
:1020600040C037F041C038F012000450D8B405D059
:10207000015002100310D8A40CD0000E016E000E07
:10208000026E000E036E1200042AD8900332023250
:102090000132000E0114066E000E0214076EFE0ED1
:1020A0000314086E065007100810D8B40CD0ECD7F3
:1020B000042A010E0126000E0222000E0322D890EF
:1020C000033202320132000E0114066E000E0214B9
:1020D000076EFF0E0314086E065007100810D8B4E0
:1020E00006D0E6D70406D89001360236033602BE83
:1020F00003D0020E0460F6D704A0029ED8900432EA
:10210000045003120550D8A4038E01C001F002C090
:1021100002F003C003F01200000E4B6E000E4A6E78
:1021200009D0000ED36E600E4524456EF00E462099
:10213000466EF9D746BE06D0A10E455C0F0E465836
:10214000D8B0EFD7000E2A6E7A0E2B6E410E2C6E91
:1021500045C009F046C00AF0B7EC11F009C027F0FD
:102160000AC028F00BC029F0DFEC0EF027C036F0D3
:1021700028C037F029C038F065EC0EF036C04CF0BE
:1021800037C04DF0000ED36E03D0D3CF4AF04B6A68
:10219000D350476E486A4C50475C4850800A496E9D
:1021A0004D50800A4958D8B01200EFD711AE16D062
:1021B0000FC015F010C016F011C017F0151E161E36
:1021C000171E152A000E16221722000E15240F6E58
:1021D000000E1620106E800E1720116E14AE16D051
:1021E00012C015F013C016F014C017F0151E161EFD
:1021F000171E152A000E16221722000E1524126E25
:10220000000E1620136E800E1720146E000E0F1A8B
:10221000000E101A800E111A000E121A000E131A58
:10222000800E141A12500F5C13501058145011588D
:10223000D8B002D0D8901200D8801200000E0F0142
:10224000116F8868000E196F8968000E216F8A6807
:10225000D6501F0B6009D66ED588D650F00B0809F2
:10226000D66ED58ED250F00B0309D26E300ECF123F
:10227000CF82CF80D09ECC50F00B0309CC6EC982A8
:10228000300EC912C98022EC12F0FEEC11F01200DF
:102290000BD00F015F9102D00F015F815F935F85CB
:1022A0005F975F995F9B0FD001C003F002C004F0FD
:1022B0000450000AD8A407D00350060AD8B4E9D7BE
:1022C000010AD8B4E9D7608E608060B0FED763CFD2
:1022D00005F064CF06F005C001F006C002F0120060
:1022E0006E0EF66E240EF76E000EF86E00EEC9F05C
:1022F00010EE0CF00900F5CFEEFFE550E150FAE1E9
:102300007E0EF66E240EF76E000EF86E0900F5CF05
:102310005DF00900F5CF5EF000EEA5F0240EEE6A48
:10232000E806FDE1000EF86E000166EF0BF01B50B1
:102330001C101D10D8B406D0000E1B1A000E1C1A5B
:10234000800E1D1A18C00CF019C00DF01AC00EF046
:102350001BC00FF01CC010F01DC011F03EEC0CF0C3
:102360000CC018F00DC019F00EC01AF01200000ECB
:102370000C6E0AAE06D0096C0A1ED8B00A2A010EED
:102380000C6E09C001F00AC002F0036A8E0E046EE2
:102390000CC005F035EC10F001C009F002C00AF0E5
:1023A00003C00BF012000EAE0FD00CC009F00DC030
:1023B0000AF00EC00BF010EC12F009C00CF00AC0CD
:1023C0000DF00BC00EF012000CC00CF00DC00DF0A3
:1023D0000EC00EF0120001500302F3CF05F0F4CF4F
:1023E00006F001500402F350062602500302F35097
:1023F000062605C001F006C002F012008A988A9AEB
:10240000968A969896909692969496969898140E88
:102410000E01B86F100EFA6F0F0EFC6F8F90120046
:1024200009500A100B10D8B406D0000E091A000E7D
:102430000A1A800E0B1A09C009F00AC00AF00BC074
:102440000BF01200609E88880F011189888A118B19
:10245000FC0E581758996098030E576F608412004D
:10246000016E95B0FED7969E01C092FF12000B0040
:102470001700180006000400020004001200050006
:020000040020DA
:10000000FF0FFF0FFF0FFF0FFF0FFF0FFF0FFF0F80
:020000040030CA
:0C000000ECFFFFFF9FFFFFFFFFFFFFFF73
:00000001FF
